{
  "contractName": "elecstation",
  "abi": [
    {
      "anonymous": false,
      "inputs": [
        {
          "indexed": false,
          "name": "_ID",
          "type": "string"
        },
        {
          "indexed": false,
          "name": "_BALANCE",
          "type": "uint256"
        }
      ],
      "name": "noticeCustomer",
      "type": "event"
    },
    {
      "anonymous": false,
      "inputs": [
        {
          "indexed": false,
          "name": "_ID",
          "type": "string"
        },
        {
          "indexed": false,
          "name": "_RATE",
          "type": "uint256"
        }
      ],
      "name": "noticeProducer",
      "type": "event"
    },
    {
      "constant": false,
      "inputs": [
        {
          "name": "_ID",
          "type": "string"
        },
        {
          "name": "_BALANCE",
          "type": "uint256"
        }
      ],
      "name": "setCustomer",
      "outputs": [],
      "payable": false,
      "stateMutability": "nonpayable",
      "type": "function"
    },
    {
      "constant": false,
      "inputs": [
        {
          "name": "_ID",
          "type": "string"
        },
        {
          "name": "_OLDBALANCE",
          "type": "uint256"
        },
        {
          "name": "_NEWBALANCE",
          "type": "uint256"
        }
      ],
      "name": "updateCustomer",
      "outputs": [],
      "payable": false,
      "stateMutability": "nonpayable",
      "type": "function"
    },
    {
      "constant": false,
      "inputs": [
        {
          "name": "_ID",
          "type": "string"
        },
        {
          "name": "_RATE",
          "type": "uint256"
        }
      ],
      "name": "setProducer",
      "outputs": [],
      "payable": false,
      "stateMutability": "nonpayable",
      "type": "function"
    },
    {
      "constant": true,
      "inputs": [
        {
          "name": "_ID",
          "type": "string"
        },
        {
          "name": "_RATE",
          "type": "uint256"
        }
      ],
      "name": "checkProducer",
      "outputs": [],
      "payable": false,
      "stateMutability": "view",
      "type": "function"
    },
    {
      "constant": false,
      "inputs": [
        {
          "name": "_ID",
          "type": "string"
        },
        {
          "name": "_OLDRATE",
          "type": "uint256"
        },
        {
          "name": "_NEWRATE",
          "type": "uint256"
        }
      ],
      "name": "updateProducer",
      "outputs": [],
      "payable": false,
      "stateMutability": "nonpayable",
      "type": "function"
    }
  ],
  "bytecode": "0x608060405234801561001057600080fd5b50610d45806100206000396000f3fe608060405234801561001057600080fd5b50600436106100575760003560e01c80634d4b1e6a1461005c5780639e828ba41461012b578063c1cef78a146101fa578063d16b6a49146102bf578063fcd4c08914610384575b600080fd5b6101296004803603606081101561007257600080fd5b810190808035906020019064010000000081111561008f57600080fd5b8201836020820111156100a157600080fd5b803590602001918460018302840111640100000000831117156100c357600080fd5b91908080601f016020809104026020016040519081016040528093929190818152602001838380828437600081840152601f19601f8201169050808301925050505050505091929192908035906020019092919080359060200190929190505050610449565b005b6101f86004803603606081101561014157600080fd5b810190808035906020019064010000000081111561015e57600080fd5b82018360208201111561017057600080fd5b8035906020019184600183028401116401000000008311171561019257600080fd5b91908080601f016020809104026020016040519081016040528093929190818152602001838380828437600081840152601f19601f820116905080830192505050505050509192919290803590602001909291908035906020019092919050505061057f565b005b6102bd6004803603604081101561021057600080fd5b810190808035906020019064010000000081111561022d57600080fd5b82018360208201111561023f57600080fd5b8035906020019184600183028401116401000000008311171561026157600080fd5b91908080601f016020809104026020016040519081016040528093929190818152602001838380828437600081840152601f19601f82011690508083019250505050505050919291929080359060200190929190505050610758565b005b610382600480360360408110156102d557600080fd5b81019080803590602001906401000000008111156102f257600080fd5b82018360208201111561030457600080fd5b8035906020019184600183028401116401000000008311171561032657600080fd5b91908080601f016020809104026020016040519081016040528093929190818152602001838380828437600081840152601f19601f820116905080830192505050505050509192919290803590602001909291905050506108cf565b005b6104476004803603604081101561039a57600080fd5b81019080803590602001906401000000008111156103b757600080fd5b8201836020820111156103c957600080fd5b803590602001918460018302840111640100000000831117156103eb57600080fd5b91908080601f016020809104026020016040519081016040528093929190818152602001838380828437600081840152601f19601f8201169050808301925050505050505091929192908035906020019092919050505061097e565b005b61045383836108cf565b80600260016003866040518082805190602001908083835b6020831061048e578051825260208201915060208101905060208303925061046b565b6001836020036101000a03801982511681845116808217855250505050505090500191505090815260200160405180910390205403815481106104cd57fe5b9060005260206000209060030201600101819055506104ec8382610b98565b600260016003866040518082805190602001908083835b602083106105265780518252602082019150602081019050602083039250610503565b6001836020036101000a038019825116818451168082178552505050505050905001915050908152602001604051809103902054038154811061056557fe5b906000526020600020906003020160020181905550505050565b600061058b8484610b98565b9050600080600180876040518082805190602001908083835b602083106105c757805182526020820191506020810190506020830392506105a4565b6001836020036101000a038019825116818451168082178552505050505050905001915050908152602001604051809103902054038154811061060657fe5b906000526020600020906003020160020154905080821461062657600080fd5b60006106328685610b98565b9050836000600180896040518082805190602001908083835b6020831061066e578051825260208201915060208101905060208303925061064b565b6001836020036101000a03801982511681845116808217855250505050505090500191505090815260200160405180910390205403815481106106ad57fe5b906000526020600020906003020160010181905550806000600180896040518082805190602001908083835b602083106106fc57805182526020820191506020810190506020830392506106d9565b6001836020036101000a038019825116818451168082178552505050505050905001915050908152602001604051809103902054038154811061073b57fe5b906000526020600020906003020160020181905550505050505050565b60006003836040518082805190602001908083835b60208310610790578051825260208201915060208101905060208303925061076d565b6001836020036101000a038019825116818451168082178552505050505050905001915050908152602001604051809103902054146107ce57600080fd5b60006107da8383610b98565b905060006002604051806060016040528086815260200185815260200184815250908060018154018082558091505090600182039060005260206000209060030201600090919290919091506000820151816000019080519060200190610842929190610c6b565b50602082015181600101556040820151816002015550509050806003856040518082805190602001908083835b60208310610892578051825260208201915060208101905060208303925061086f565b6001836020036101000a03801982511681845116808217855250505050505090500191505090815260200160405180910390208190555050505050565b60006108db8383610b98565b90506000600260016003866040518082805190602001908083835b6020831061091957805182526020820191506020810190506020830392506108f6565b6001836020036101000a038019825116818451168082178552505050505050905001915050908152602001604051809103902054038154811061095857fe5b906000526020600020906003020160020154905080821461097857600080fd5b50505050565b60006001836040518082805190602001908083835b602083106109b65780518252602082019150602081019050602083039250610993565b6001836020036101000a038019825116818451168082178552505050505050905001915050908152602001604051809103902054146109f457600080fd5b6000610a008383610b98565b9050600080604051806060016040528086815260200185815260200184815250908060018154018082558091505090600182039060005260206000209060030201600090919290919091506000820151816000019080519060200190610a67929190610c6b565b50602082015181600101556040820151816002015550509050806001856040518082805190602001908083835b60208310610ab75780518252602082019150602081019050602083039250610a94565b6001836020036101000a0380198251168184511680821785525050505050509050019150509081526020016040518091039020819055507f54695266c84a51fb39b173579b6b8be635d5836a333d1a056b968c5214a2e39984846040518080602001838152602001828103825284818151815260200191508051906020019080838360005b83811015610b57578082015181840152602081019050610b3c565b50505050905090810190601f168015610b845780820380516001836020036101000a031916815260200191505b50935050505060405180910390a150505050565b600081604051602001808281526020019150506040516020818303038152906040528051906020012060001c836040516020018082805190602001908083835b60208310610bfb5780518252602082019150602081019050602083039250610bd8565b6001836020036101000a0380198251168184511680821785525050505050509050019150506040516020818303038152906040528051906020012060001c01604051602001808281526020019150506040516020818303038152906040528051906020012060001c905092915050565b828054600181600116156101000203166002900490600052602060002090601f016020900481019282601f10610cac57805160ff1916838001178555610cda565b82800160010185558215610cda579182015b82811115610cd9578251825591602001919060010190610cbe565b5b509050610ce79190610ceb565b5090565b610d0d91905b80821115610d09576000816000905550600101610cf1565b5090565b9056fea265627a7a72305820ec7f13aea502747dad5c32e03530d6502df0262c43aa5c47414e899b81ffb3c364736f6c634300050a0032",
  "source": "pragma solidity ^0.5.10;\r\n\r\ncontract elecstation{\r\n    \r\n    event noticeCustomer(string _ID,uint _BALANCE);\r\n    event noticeProducer(string _ID,uint _RATE);\r\n    \r\n    struct Customer{\r\n        string ID;\r\n        uint BALANCE;\r\n        uint HASH;\r\n    }\r\n    \r\n    struct Producer{\r\n        string ID;\r\n        uint RATE;\r\n        uint HASH;\r\n    }\r\n    \r\n    Customer[] internal customers;\r\n    mapping (string=>uint) customerMapping;\r\n    \r\n    Producer[] internal producers;\r\n    mapping (string => uint) producerMapping;\r\n    \r\n    function setCustomer(string memory _ID, uint _BALANCE) public{\r\n        \r\n        require(customerMapping[_ID] == 0);\r\n        \r\n        uint term = _getHash(_ID,_BALANCE);\r\n        uint number = customers.push(Customer(_ID,_BALANCE,term));\r\n        customerMapping[_ID] = number;\r\n        emit noticeCustomer(_ID,_BALANCE);\r\n    }\r\n    \r\n    function updateCustomer(string memory _ID,uint _OLDBALANCE,uint _NEWBALANCE) public{\r\n        uint term = _getHash(_ID,_OLDBALANCE);\r\n        uint term1 = customers[customerMapping[_ID]-1].HASH;\r\n        \r\n        require(term == term1);\r\n        \r\n        uint newTerm = _getHash(_ID,_NEWBALANCE);\r\n        customers[customerMapping[_ID]-1].BALANCE = _NEWBALANCE;\r\n        customers[customerMapping[_ID]-1].HASH = newTerm;\r\n    }\r\n    \r\n    function setProducer(string memory _ID, uint _RATE) public {\r\n        \r\n        require(producerMapping[_ID] ==0);\r\n        \r\n        uint term = _getHash(_ID,_RATE);\r\n        uint number = producers.push(Producer(_ID,_RATE,term));\r\n        producerMapping[_ID] = number;\r\n    }\r\n    \r\n    function checkProducer(string memory _ID, uint _RATE) public view{\r\n        uint term = _getHash(_ID,_RATE);\r\n        uint term1 = producers[producerMapping[_ID]-1].HASH;\r\n        \r\n        require(term == term1);\r\n    }\r\n    \r\n    function updateProducer(string memory _ID,uint _OLDRATE, uint _NEWRATE) public {\r\n        checkProducer(_ID,_OLDRATE);\r\n        producers[producerMapping[_ID]-1].RATE = _NEWRATE;\r\n        producers[producerMapping[_ID]-1].HASH = _getHash(_ID,_NEWRATE);\r\n    }\r\n    \r\n    function _getHash(string memory _ID,uint _VALUE) private pure returns(uint){\r\n        return uint(keccak256(abi.encodePacked(uint(keccak256(abi.encodePacked(_ID)))+uint(keccak256(abi.encodePacked(_VALUE))))));\r\n    }\r\n}",
  "sourcePath": "C:/Users/worud/Desktop/ELECCHAIN/BlackChain/contracts/Elecstation.sol",
  "compiler": {
    "name": "solc",
    "version": "0.5.10+commit.5a6ea5b1.Emscripten.clang"
  },
  "schemaVersion": "3.0.16",
  "updatedAt": "2019-09-25T08:35:41.828Z",
  "devdoc": {
    "methods": {}
  },
  "userdoc": {
    "methods": {}
  }
}